:1008A6002020205368616E6B7920202000202020B4
:0C08B6002072616D646920202020200069
:10080000E4F5A0C282C280C2817F38FE1208DB12EA
:10081000083C7F067E001208DB12083C7F0C7E003D
:100820001208DB12083C7F017E001208DB12083C34
:070830007F807E000208DB5F
:090837007E001208DB7F047E0044
:10084000E4FDFCC3ED9FEC9E5015E4FBFA0BBB00EE
:0F085000010ABA01F8BB7EF50DBD00010C80E472
:01085F002276
:1008DB00C280C281D2828FA07F0A7E00120840C2E2
:0208EB00822267
:1008ED00D280C281D2828FA07F0A7E00120840C2C0
:0208FD00822255
:100860008B088A09890AAB08AA09A90A1208C2607A
:1008700013050AE50A7002050914F91208C2FF12ED
:0508800008ED80E222FA
:100885001208007F801208377BFF7A0879A61208C4
:10089500607FC01208377BFF7A0879B31208608041
:0108A500FE54
:030000000208FFF4
:0C08FF00787FE4F6D8FD75810A020885B8
:1008C200BB010689828A83E0225002E722BBFE0234
:0908D200E32289828A83E4932267
:00000001FF
