:03000000020B7779
:0C0B7700787FE4F6D8FD75811E020800AE
:100A6200456E7465722050617373776F72643A00D9
:100A7200436F72726563742050617373776F72642F
:100A82000057726F6E672050617373776F726400E4
:100A9200416363657373204772616E7465640041DC
:100AA20063636573732044656E6965640031323334
:100AB2004134353642373839432A302344313541BF
:0D0AC200382A443623000000000000000028
:100ACF00E4F5A0C282C280C2817F38FE120B53129E
:100ADF000B2B7F067E00120B53120B2B7F0C7E000D
:100AEF00120B53120B2B7F017E00120B53120B2B89
:070AFF007F807E00020B5313
:040B2B007F047E00C5
:100B2F00E4FDFCC3ED9FEC9E5015E4FBFA0BBB00FC
:0F0B3F00010ABA01F8BB7EF50DBD00010C80E480
:010B4E002284
:040B4F007FC07E00E5
:100B5300C280C281D2828FA07F0A7E00120B2FC275
:020B63008222EC
:100B6500D280C281D2828FA07F0A7E00120B2FC253
:020B75008222DA
:100B06008B1C8A1D891EAB1CAA1DA91E120A4960D0
:100B160013051EE51E7002051D14F9120A49FF127F
:050B26000B6580E222D6
:1008000078087C007D007BFF7A0A79BF7E007F0834
:10081000120A2378107C007D007BFF7A0A79C77E5C
:10082000007F08120A23751A01E4F51B120ACF7F14
:10083000807E00120B537BFF7A0A7962120B06E46A
:10084000F518120B4F7B007A007910120B0675B069
:100850000FE5B0540FF9E9640F600EE5B0540FF9DD
:100860007F017E00120B2F80EDB90F0EE5B0540F03
:10087000F97F017E00120B2F80EF7F147E00120B98
:100880002FE5B0540FF9640F60C77F04A807740107
:10089000088002C333D8FCFEC374FF9EF5B0E5B0F8
:1008A000540FF9E4F51BE9640F602DE930E007C34C
:1008B00013F9051B80F5C37403951B25E025E0247F
:1008C000ABF582E4340AF583E5822FF582E43583C3
:1008D000F583E493F51980040FBF08B07410251850
:1008E000F8A6190518E518C3940850030208427FBA
:1008F0002C7E01120B2FE4F51874082518F8E6FF7A
:1009000074102518F8E66F6005E4F51A80070518DD
:10091000E518B408E4E51A7F807E006017120B53D7
:100920007BFF7A0A7972120B06120B4F7BFF7A0A51
:1009300079928015120B537BFF7A0A7983120B068A
:10094000120B4F7BFF7A0A79A1120B067F107E27CC
:03095000020B2F68
:10095300E709F608DFFA8046E709F208DFFA803E86
:1009630088828C83E709F0A3DFFA8032E309F60873
:10097300DFFA8078E309F208DFFA807088828C83DB
:10098300E309F0A3DFFA806489828A83E0A3F6088F
:10099300DFFA805889828A83E0A3F208DFFA804C69
:1009A30080D280FA80C680D4806980F28033801040
:1009B30080A680EA809A80A880DA80E280CA8033A9
:1009C30089828A83ECFAE493A3C8C582C8CCC58321
:1009D300CCF0A3C8C582C8CCC583CCDFE9DEE780F1
:1009E3000D89828A83E493A3F608DFF9ECFAA9F070
:1009F300EDFB2289828A83ECFAE0A3C8C582C8CCC6
:100A0300C583CCF0A3C8C582C8CCC583CCDFEADEDE
:100A1300E880DB89828A83E493A3F208DFF980CC40
:100A230088F0EF60010E4E60C388F0ED2402B40439
:100A33000050B9F582EB2402B4040050AF232345E0
:060A430082239009A37359
:100A4900BB010689828A83E0225002E722BBFE02AB
:090A5900E32289828A83E49322DE
:00000001FF
