:03000000020BDD13
:0C0BDD00787FE4F6D8FD758122020A71D1
:100B300053746172742053746F70576174636800EA
:100B4000202020205945532E2E2E3F2020202000EB
:100B5000202020202030303A30302020202020005B
:100AF900E4F5A0C282C280C2817F38FE120BA9121E
:100B09000B857F067E00120BA9120B857F0C7E00D8
:100B1900120BA9120B857F017E00120BA9120B85FE
:070B29007F807E00020BA992
:040B85007F047E006B
:100B8900E4FDFCC3ED9FEC9E5015E4FBFA0BBB00A2
:0F0B9900010ABA01F8BB7EF50DBD00010C80E426
:010BA800222A
:100BA900C280C281D2828FA07F0A7E00120B89C2C5
:020BB900822296
:100BBB00D280C281D2828FA07F0A7E00120B89C2A3
:020BCB00822284
:100B60008B208A218922AB20AA21A9221208F660B3
:100B7000130522E5227002052114F91208F6FF126E
:050B80000BBB80E22226
:100A7100780A7C007D007BFF7A0B79507E007F1025
:100A81001208D0120AF97F807E00120BA97BFF7A2F
:100A91000B7930120B607FC07E00120BA97B007AAC
:100AA10000790A120B603090FD7F807E00120BA945
:100AB1007BFF7A0B7940120B60E4F508F509758923
:100AC1000130901F120BCD0509E50970020508756B
:100AD1001D00751E00751F0A7B007A007908120936
:100AE100B180DE7FD07E07120B89750F3075103013
:080AF100751230751330808B83
:100BCD00758CFF758AC4D28C308DFDC28CC28D227E
:1009B1008B1A8A1B891C120986FFAEF07C007D3CD4
:1009C1001209317C007D0A120931EF2430AB1DAAD6
:1009D1001EA91F90000512090FAB1AAA1BA91C1210
:1009E1000986FFAEF07C007D3C1209317C007D0A56
:1009F100120931ED2430AB1DAA1EA91F9000061269
:100A0100090FAB1AAA1BA91C120986FFAEF07C00C4
:100A11007D3C1209317E007F0ACFCDCFCECCCE12E4
:100A21000931EF2430AB1DAA1EA91F90000812093D
:100A31000FAB1AAA1BA91C120986FFAEF07C007D20
:100A41003C1209317E007F0ACFCDCFCECCCE120928
:100A510031ED2430AB1DAA1EA91F90000912090F08
:100A61007FC07E00120BA9AB1DAA1EA91F020B603D
:10080000E709F608DFFA8046E709F208DFFA803EDA
:1008100088828C83E709F0A3DFFA8032E309F608C7
:10082000DFFA8078E309F208DFFA807088828C832F
:10083000E309F0A3DFFA806489828A83E0A3F608E3
:10084000DFFA805889828A83E0A3F208DFFA804CBD
:1008500080D280FA80C680D4806980F28033801094
:1008600080A680EA809A80A880DA80E280CA8033FD
:1008700089828A83ECFAE493A3C8C582C8CCC58375
:10088000CCF0A3C8C582C8CCC583CCDFE9DEE78045
:100890000D89828A83E493A3F608DFF9ECFAA9F0C4
:1008A000EDFB2289828A83ECFAE0A3C8C582C8CC1A
:1008B000C583CCF0A3C8C582C8CCC583CCDFEADE33
:1008C000E880DB89828A83E493A3F208DFF980CC95
:1008D00088F0EF60010E4E60C388F0ED2402B4048E
:1008E0000050B9F582EB2402B4040050AF23234535
:0608F00082239008507302
:1008F600BB010689828A83E0225002E722BBFE0200
:09090600E32289828A83E4932232
:10090F00F8BB010DE58229F582E5833AF583E8F01E
:10091F00225006E92582C8F622BBFE05E92582C8CA
:02092F00F222B2
:10093100BC000BBE0029EF8DF084FFADF022E4CCAA
:10094100F875F008EF2FFFEE33FEEC33FCEE9DEC73
:10095100984005FCEE9DFE0FD5F0E9E4CEFD22EDB9
:10096100F8F5F0EE8420D21CFEADF075F008EF2F03
:10097100FFED33FD4007985006D5F0F222C398FDF4
:050981000FD5F0EA2291
:10098600BB010A89828A83E0F5F0A3E0225006873C
:10099600F009E71922BBFE07E3F5F009E3192289FE
:0B09A600828A83E493F5F07401932231
:00000001FF
