:03000000020C37B8
:0C0C3700787FE4F6D8FD75813C020C7E4D
:100E9400566F6C742E3A2000206D562020002020BE
:040EA40020202000EA
:0A0ED800C100060800000000000041
:100DFE00E4F5A0C282C280C2817F38FE120EA81214
:100E0E000E5A7F067E00120EA8120E5A7F0C7E001E
:100E1E00120EA8120E5A7F017E00120EA8120E5A42
:070E2E007F807E00020EA888
:040E5A007F047E0093
:100E5E00E4FDFCC3ED9FEC9E5015E4FBFA0BBB00CA
:0F0E6E00010ABA01F8BB7EF50DBD00010C80E44E
:010E7D002252
:100B91008E2D8F2E8B2F8A3089317C277D10120B61
:100BA10008EF2430120AD4AE2DAF2E7C277D10120F
:100BB1000B087E037FE8CFCDCFCECCCE120B08EF52
:100BC1002430AB2FAA30A931900001120AE6AE2DD4
:100BD100AF2E7C037DE8120B087E007F64CFCDCF62
:100BE100CECCCE120B08EF2430AB2FAA30A9319016
:100BF1000002120AE6AE2DAF2E7C007D64120B08B6
:100C01007E007F0ACFCDCFCECCCE120B08EF2430A1
:100C1100AB2FAA30A931900003120AE6AE2DAF2EF8
:100C21007C007D0A120B08ED2430AB2FAA30A931CC
:060C3100900004020AE637
:100EA800C280C281D2828FA07F0A7E00120E5EC2EB
:020EB800822294
:100EBA00D280C281D2828FA07F0A7E00120E5EC2C9
:020ECA00822282
:100E35008B2D8A2E892FAB2DAA2EA92F120ABB60C6
:100E450013052FE52F7002052E14F9120ABBFF12A8
:050E55000EBA80E2224C
:0C0ECC0075C3BC43B104D2AF43C3402245
:080DA2008F3C8E3B8D3A8C3929
:100DAA00C2007810120B6BE48FC53000FDA90EC289
:100DBA0000AF3CAE3BAD3AAC397808120B6B8FC52D
:100DCA003000FDAB0EC200E53CFF8FC53000FDAD23
:100DDA000EEB7B00FA7E00E97810C333CE33CED80F
:100DEA00F92BFFEE3AFE7C00EF2DFFEC3EFE339529
:030DFA00E0FDFC1D
:010DFD0022D3
:03004B00020E7E24
:100E7E00C0E0C0D0E5C454F02480700585C50ED204
:060E8E0000D0D0D0E032DC
:030EE300D2942284
:020D3D00AB0702
:100D3F00E4F534F533753201F531EF75F010A47E1B
:100D4F00005470FFEE3395E0FDFCEF4480FFED782B
:100D5F0008120B7E8F388E378D368C35E53425385B
:100D6F00FFE5333537FEE5323536FDE5313535FCF8
:100D7F00C294120DA28F308E2F8D2E8C2DD294E512
:100D8F0030F530E52F5403F52FE4F52EF52DAE2F6A
:020D9F00AF3073
:010DA100222F
:100CC300E4F521F522F523F52478257C00FD7BFF4F
:100CD3007A0E79A2FE7F06120A95120ECC120EE34B
:030CE300120DFEF1
:100CE6007F04120D3D8E2B8F2CAC2BAD2CE41209FC
:100CF6000B7B827A73794E78401208001209448E73
:100D0600238F247B007A007925120B917F807E0049
:100D1600120EA87BFF7A0E7994120E357FC07E00E4
:100D2600120EA87B007A007925120E357BFF7A0E0B
:050D3600799C120E354E
:020D3B0080A98D
:10080000EC4D6011E8497017ED33EC3304600DE4F2
:10081000FCFFFEFD22E933E8330470F80209B01250
:10082000097B58046009E4CC248150062850090251
:1008300009BA2840030209B7C0E0EB4A7044B98006
:1008400006D0E0FB0209A6EF4E701CBD8008EBFF4E
:10085000EAFEE9FD80EBE98DF0A4FEE5F00208E98F
:10086000E9CDF9EAFEEBFFEF89F0A4FCE5F0CE89D3
:10087000F0A42EFFE435F0CD89F0A42DFEE435F090
:100880008067EF4E7005BD80D780C3EF8BF0A4ACBE
:10089000F0EE8BF0A42CFCE435F0F8EF8AF0A42CF9
:1008A000E5F038FCE433CB8DF0A42CFCE5F03BF80C
:1008B000EE8AF0A42CFCE5F038F8E433CF89F0A4FC
:1008C0002CFCE5F038CF3400CE89F0A42FFFE5F002
:1008D0003EFEE433C98DF0A42EFEE5F039CD8AF05A
:1008E000A42FFFE5F03EFEE43DFD33D0E0FB5007D2
:1008F0000BBB000F0209BAEC2CFCEF33FFEE33FE0A
:06090000ED33FD02099237
:1009060075F020800E75F010800575F0087D007E6C
:10091600007F003392D530D503120B5DEC334010C7
:10092600EF33FFEE33FEED33FDEC33FCD5F0ED2275
:0E093600E5F0247EA2D513CC92E7CDCEFF22B1
:10094400EDD2E7CD33EC3392D524814006E4FFFEAB
:10095400FDFC22FCE4CFCECDCC24E0501174FF800A
:10096400EDC3CC13CCCD13CDCE13CECF13CF0470A7
:07097400F030D5DE020B5D3F
:10097B00E9D2E7C933E833F892D5EDD2E7CD33ECC2
:07098B0033FC5002B2D5223B
:10099200EC30E7100FBF000C0EBE00080DBD0004C6
:1009A2000BEB6014A2D5EB13FCED92E7FD2274FF72
:1009B200FCFDFEFF22E480F8A2D574FF13FC7D80CB
:0309C200E480EFDF
:100C4300020CC3E493A3F8E493A34003F68001F2F8
:100C530008DFF48029E493A3F85407240CC8C333B2
:100C6300C4540F4420C8834004F456800146F6DF81
:100C7300E4800B0102040810204080900ED8E47E2B
:100C8300019360BCA3FF543F30E509541FFEE49376
:100C9300A360010ECF54C025E060A840B8E493A33D
:100CA300FAE493A3F8E493A3C8C582C8CAC583CA68
:100CB300F0A3C8C582C8CAC583CADFE9DEE780BE20
:010EE200000F
:1009C500E709F608DFFA8046E709F208DFFA803E14
:1009D50088828C83E709F0A3DFFA8032E309F60801
:1009E500DFFA8078E309F208DFFA807088828C8369
:1009F500E309F0A3DFFA806489828A83E0A3F6081D
:100A0500DFFA805889828A83E0A3F208DFFA804CF6
:100A150080D280FA80C680D4806980F280338010CD
:100A250080A680EA809A80A880DA80E280CA803336
:100A350089828A83ECFAE493A3C8C582C8CCC583AE
:100A4500CCF0A3C8C582C8CCC583CCDFE9DEE7807E
:100A55000D89828A83E493A3F608DFF9ECFAA9F0FD
:100A6500EDFB2289828A83ECFAE0A3C8C582C8CC53
:100A7500C583CCF0A3C8C582C8CCC583CCDFEADE6C
:100A8500E880DB89828A83E493A3F208DFF980CCCE
:100A950088F0EF60010E4E60C388F0ED2402B404C7
:100AA5000050B9F582EB2402B4040050AF2323456E
:060AB5008223900A157374
:100ABB00BB010689828A83E0225002E722BBFE0239
:090ACB00E32289828A83E493226C
:100AD400BB010689828A83F0225002F722BBFE0101
:020AE400F322FB
:100AE600F8BB010DE58229F582E5833AF583E8F046
:100AF600225006E92582C8F622BBFE05E92582C8F2
:020B0600F222D9
:100B0800BC000BBE0029EF8DF084FFADF022E4CCD1
:100B1800F875F008EF2FFFEE33FEEC33FCEE9DEC9A
:100B2800984005FCEE9DFE0FD5F0E9E4CEFD22EDE0
:100B3800F8F5F0EE8420D21CFEADF075F008EF2F2A
:100B4800FFED33FD4007985006D5F0F222C398FD1B
:050B58000FD5F0EA22B8
:0E0B5D00C3E49FFFE49EFEE49DFDE49CFC22A9
:100B6B00E8600FECC313FCED13FDEE13FEEF13FF68
:030B7B00D8F1228C
:100B7E00E8600FEFC333FFEE33FEED33FDEC33FCD5
:030B8E00D8F12279
:00000001FF
