:1009F700202053544152542050524F4752414D20CA
:100A07002000202020464952535420494E50555427
:100A17002020200020204E45585420494E50555440
:100A27002020200020202020534F5254494E472099
:100A37002020200020202020434F4D504C45544576
:100A4700442020200020204E554D42455220544F2F
:100A57002042452020002020202053454152434872
:100A670045442020202000202054484520494E445A
:100A7700455820495320200020202020204E554D46
:100A8700424552202020202000202020204E4F5475
:0A0A970020464F554E442020200059
:100AA100E4F5A0C282C280C2817F38FE120B3A7F78
:100AB100047E00120AEE7F067E00120B3A7F047E4E
:100AC10000120AEE7F0C7E00120B3A7F047E0012A8
:100AD1000AEE7F017E00120B3A7F047E00120AEEBD
:070AE1007F807E00020B3A4A
:060AE800F5907F887E13EB
:100AEE00E4FDFCC3ED9FEC9E5015E4FBFA0BBB003E
:0F0AFE00010ABA01F8BB7EF50DBD00010C80E4C2
:010B0D0022C5
:070B330075900F7F807E002A
:100B3A00C280C281D2828FA07F0A7E00120AEEC2D0
:020B4A00822205
:100B6500D280C281D2828FA07F0A7E00120AEEC295
:020B75008222DA
:100B0E008B108A118912AB10AA11A912120B4C600C
:100B1E00130512E5127002051114F9120B4CFF1297
:050B2E000B6580E222CE
:10080000120AA1120B337BFF7A0979F7120B0E1231
:100810000AEA120B367BFF7A0A7909120B0E120ACA
:10082000EAE4F50EF50F75900FE590540FF5087496
:1008300009250FF8A608120B36E50F6404450E7B58
:10084000FF60067A0A791B80047A0A792B120B0E54
:10085000E508C454F0F508120AE8E50F6404450EF3
:1008600060097F017E00120B3A801C120B367BFF61
:100870007A0A792B120B0E7FC07E00120B3A7BFF97
:100880007A0A793B120B0EE4F5907FE87E03120A98
:10089000EE050FE50F7002050EC39405E50E6480AA
:1008A00094804082750E00750F04E4FFFEC3EF953F
:1008B0000FE50E6480F8EE648098504B740A2FF8B0
:1008C000E6FD74092FF8E6D39D403574092FF8C072
:1008D00000E6FD740A2FF8E66DD000F6740A2FF8D2
:1008E000E6FD74092FF8E66DFD740A2FF8A605746D
:1008F000092FF8C000E6FD740A2FF8E66DD000F667
:100900000FBF00010E80A6E50F150F7002150EE552
:100910000F450E70957F017E00120B3AE4F50EF53F
:100920000F75900F7409250FF8E6C454F0120AE809
:10093000E4F5907FE87E03120AEE050FE50F7002E2
:10094000050EC39405E50E6480948040D4120B33E9
:100950007BFF7A0A794C120B0E7FC07E00120B3A95
:100960007BFF7A0A795D120B0E120AEAE590540FAA
:10097000F97F017E00120B3AE4F5907FE87E0312C6
:100980000AEEE4FFFEF50EF50F7409250FF8E6B543
:1009900001067E007F01800E050FE50F7002050E37
:1009A0006405450E70E3EF64014E70257F80FE12F2
:1009B0000B3A7BFF7A0A796E120B0EE4F590050F65
:1009C000E50F7002050EC4F8540FC868FF8F9080C1
:1009D0001F120B367BFF7A0A797F120B0E7FC07EC7
:1009E00000120B3A7BFF7A0A7990120B0E7590FF7A
:0709F0007F107E27020AEED2
:03000000020B7779
:0C0B7700787FE4F6D8FD758112020800BA
:100B4C00BB010689828A83E0225002E722BBFE02A7
:090B5C00E32289828A83E49322DA
:00000001FF
